{
  "contractName": "OfferContract",
  "abi": [
    {
      "inputs": [
        {
          "internalType": "uint256",
          "name": "_id",
          "type": "uint256"
        },
        {
          "internalType": "address",
          "name": "_sellerAddress",
          "type": "address"
        },
        {
          "internalType": "address",
          "name": "_buyerAddress",
          "type": "address"
        },
        {
          "internalType": "uint256",
          "name": "_offerAmount",
          "type": "uint256"
        },
        {
          "internalType": "uint256",
          "name": "_gracePeriod",
          "type": "uint256"
        }
      ],
      "stateMutability": "nonpayable",
      "type": "constructor"
    },
    {
      "anonymous": false,
      "inputs": [
        {
          "indexed": false,
          "internalType": "uint256",
          "name": "_id",
          "type": "uint256"
        },
        {
          "indexed": false,
          "internalType": "bool",
          "name": "_value",
          "type": "bool"
        }
      ],
      "name": "OfferAccepted",
      "type": "event"
    },
    {
      "anonymous": false,
      "inputs": [
        {
          "indexed": false,
          "internalType": "address",
          "name": "_buyer",
          "type": "address"
        },
        {
          "indexed": false,
          "internalType": "address",
          "name": "_seller",
          "type": "address"
        },
        {
          "indexed": false,
          "internalType": "uint256",
          "name": "offerAmount",
          "type": "uint256"
        }
      ],
      "name": "OfferCreated",
      "type": "event"
    },
    {
      "anonymous": false,
      "inputs": [
        {
          "indexed": false,
          "internalType": "bool",
          "name": "_WallsPainted",
          "type": "bool"
        },
        {
          "indexed": false,
          "internalType": "bool",
          "name": "_CarpetCleaned",
          "type": "bool"
        },
        {
          "indexed": false,
          "internalType": "bool",
          "name": "_WindowsWashed",
          "type": "bool"
        }
      ],
      "name": "isAllSaleConditionsMet",
      "type": "event"
    },
    {
      "inputs": [],
      "name": "escrowDataElements",
      "outputs": [
        {
          "internalType": "address",
          "name": "escrowDepositorAddress",
          "type": "address"
        },
        {
          "internalType": "address",
          "name": "escrowAgentAddress",
          "type": "address"
        },
        {
          "internalType": "address",
          "name": "escrowBeneficiaryAddress",
          "type": "address"
        },
        {
          "internalType": "uint256",
          "name": "escrowAmount",
          "type": "uint256"
        }
      ],
      "stateMutability": "view",
      "type": "function",
      "constant": true
    },
    {
      "inputs": [
        {
          "internalType": "uint256",
          "name": "_ident",
          "type": "uint256"
        }
      ],
      "name": "getOfferContractDetails",
      "outputs": [
        {
          "internalType": "uint256",
          "name": "_id",
          "type": "uint256"
        },
        {
          "internalType": "address",
          "name": "_buyerAddress",
          "type": "address"
        },
        {
          "internalType": "address",
          "name": "_sellerAddress",
          "type": "address"
        },
        {
          "internalType": "uint256",
          "name": "_offerDate",
          "type": "uint256"
        },
        {
          "internalType": "uint256",
          "name": "_currentDate",
          "type": "uint256"
        },
        {
          "internalType": "uint256",
          "name": "_expiredDate",
          "type": "uint256"
        },
        {
          "internalType": "uint256",
          "name": "_offerAmount",
          "type": "uint256"
        },
        {
          "internalType": "bool",
          "name": "_accepted",
          "type": "bool"
        }
      ],
      "stateMutability": "view",
      "type": "function",
      "constant": true
    },
    {
      "inputs": [
        {
          "internalType": "uint256",
          "name": "_id",
          "type": "uint256"
        },
        {
          "internalType": "bool",
          "name": "_value",
          "type": "bool"
        }
      ],
      "name": "accept",
      "outputs": [
        {
          "internalType": "bool",
          "name": "",
          "type": "bool"
        }
      ],
      "stateMutability": "nonpayable",
      "type": "function"
    },
    {
      "inputs": [
        {
          "internalType": "uint256",
          "name": "_id",
          "type": "uint256"
        }
      ],
      "name": "isOfferAccepted",
      "outputs": [
        {
          "internalType": "bool",
          "name": "",
          "type": "bool"
        }
      ],
      "stateMutability": "view",
      "type": "function",
      "constant": true
    },
    {
      "inputs": [
        {
          "internalType": "uint256",
          "name": "_id",
          "type": "uint256"
        }
      ],
      "name": "isOfferExpired",
      "outputs": [
        {
          "internalType": "bool",
          "name": "_value",
          "type": "bool"
        }
      ],
      "stateMutability": "nonpayable",
      "type": "function"
    },
    {
      "inputs": [
        {
          "internalType": "uint256",
          "name": "_gracePeriod",
          "type": "uint256"
        }
      ],
      "name": "setConditionGracePeriod",
      "outputs": [],
      "stateMutability": "nonpayable",
      "type": "function"
    },
    {
      "inputs": [
        {
          "internalType": "uint256",
          "name": "_ident",
          "type": "uint256"
        }
      ],
      "name": "isConditionMet",
      "outputs": [
        {
          "internalType": "bool",
          "name": "_value",
          "type": "bool"
        }
      ],
      "stateMutability": "view",
      "type": "function",
      "constant": true
    },
    {
      "inputs": [
        {
          "internalType": "uint256",
          "name": "_ident",
          "type": "uint256"
        },
        {
          "internalType": "bool",
          "name": "_WallsPainted",
          "type": "bool"
        },
        {
          "internalType": "bool",
          "name": "_CarpetCleaned",
          "type": "bool"
        },
        {
          "internalType": "bool",
          "name": "_WindowsWashed",
          "type": "bool"
        }
      ],
      "name": "setConditionList",
      "outputs": [],
      "stateMutability": "nonpayable",
      "type": "function"
    },
    {
      "inputs": [
        {
          "internalType": "uint256",
          "name": "_ident",
          "type": "uint256"
        }
      ],
      "name": "getConditions",
      "outputs": [
        {
          "internalType": "bool",
          "name": "_WallsPainted",
          "type": "bool"
        },
        {
          "internalType": "bool",
          "name": "_CarpetCleaned",
          "type": "bool"
        },
        {
          "internalType": "bool",
          "name": "_WindowsWashed",
          "type": "bool"
        }
      ],
      "stateMutability": "view",
      "type": "function",
      "constant": true
    }
  ],
  "bytecode": "0x6080604052600f60075534801561001557600080fd5b50604051610b73380380610b73833981810160405260a081101561003857600080fd5b810190808051906020019092919080519060200190929190805190602001909291908051906020019092919080519060200190929190505050605a8111156100cb576040517f08c379a000000000000000000000000000000000000000000000000000000000815260040180806020018281038252604c815260200180610b27604c913960600191505060405180910390fd5b42810190508060086000828254019250508190555083600460006101000a81548173ffffffffffffffffffffffffffffffffffffffff021916908373ffffffffffffffffffffffffffffffffffffffff1602179055506040518060e001604052808681526020018573ffffffffffffffffffffffffffffffffffffffff1681526020018473ffffffffffffffffffffffffffffffffffffffff168152602001428152602001600854815260200183815260200160001515815250600560008781526020019081526020016000206000820151816000015560208201518160010160006101000a81548173ffffffffffffffffffffffffffffffffffffffff021916908373ffffffffffffffffffffffffffffffffffffffff16021790555060408201518160020160006101000a81548173ffffffffffffffffffffffffffffffffffffffff021916908373ffffffffffffffffffffffffffffffffffffffff160217905550606082015181600301556080820151816004015560a0820151816005015560c08201518160060160006101000a81548160ff02191690831515021790555090505050505050506108a2806102856000396000f3fe608060405234801561001057600080fd5b50600436106100935760003560e01c806378997bbf1161006657806378997bbf146102435780637caafda714610295578063b1f60b46146102c3578063cf29558c14610309578063d01f4dda1461034f57610093565b80631eada765146100985780633b41e19c146100f457806358e83a60146101465780636b3626641461018c575b600080fd5b6100c4600480360360208110156100ae57600080fd5b810190808035906020019092919050505061041e565b60405180841515151581526020018315151515815260200182151515158152602001935050505060405180910390f35b61012c6004803603604081101561010a57600080fd5b8101908080359060200190929190803515159060200190929190505050610499565b604051808215151515815260200191505060405180910390f35b6101726004803603602081101561015c57600080fd5b8101908080359060200190929190505050610515565b604051808215151515815260200191505060405180910390f35b61019461051c565b604051808573ffffffffffffffffffffffffffffffffffffffff1673ffffffffffffffffffffffffffffffffffffffff1681526020018473ffffffffffffffffffffffffffffffffffffffff1673ffffffffffffffffffffffffffffffffffffffff1681526020018373ffffffffffffffffffffffffffffffffffffffff1673ffffffffffffffffffffffffffffffffffffffff16815260200182815260200194505050505060405180910390f35b6102936004803603608081101561025957600080fd5b810190808035906020019092919080351515906020019092919080351515906020019092919080351515906020019092919050505061059a565b005b6102c1600480360360208110156102ab57600080fd5b81019080803590602001909291905050506106b5565b005b6102ef600480360360208110156102d957600080fd5b81019080803590602001909291905050506106b8565b604051808215151515815260200191505060405180910390f35b6103356004803603602081101561031f57600080fd5b81019080803590602001909291905050506106e5565b604051808215151515815260200191505060405180910390f35b61037b6004803603602081101561036557600080fd5b8101908080359060200190929190505050610792565b604051808981526020018873ffffffffffffffffffffffffffffffffffffffff1673ffffffffffffffffffffffffffffffffffffffff1681526020018773ffffffffffffffffffffffffffffffffffffffff1673ffffffffffffffffffffffffffffffffffffffff168152602001868152602001858152602001848152602001838152602001821515151581526020019850505050505050505060405180910390f35b60008060008060066000868152602001908152602001600020905060008160000154905060008260010160009054906101000a900460ff16905060008360010160019054906101000a900460ff16905060008460010160029054906101000a900460ff16905082828297509750975050505050509193909250565b6000816005600085815260200190815260200160002060060160006101000a81548160ff0219169083151502179055507fc1ed61a354e7eb894b73fc76469178cc56183a1c23267f08a7e6bff0cb346b05838360405180838152602001821515151581526020019250505060405180910390a181905092915050565b6000919050565b60008060000160009054906101000a900473ffffffffffffffffffffffffffffffffffffffff16908060010160009054906101000a900473ffffffffffffffffffffffffffffffffffffffff16908060020160009054906101000a900473ffffffffffffffffffffffffffffffffffffffff16908060030154905084565b604051806080016040528085815260200184151581526020018315158152602001821515815250600660008681526020019081526020016000206000820151816000015560208201518160010160006101000a81548160ff02191690831515021790555060408201518160010160016101000a81548160ff02191690831515021790555060608201518160010160026101000a81548160ff02191690831515021790555090505082801561064b5750815b80156106545750805b156106af577fd22a61b28df8cc9b1bbcc03da3c66931ea12e5fa1d8be23eaf04b2eb9ffc322a600180600160405180841515151581526020018315151515815260200182151515158152602001935050505060405180910390a15b50505050565b50565b60006005600083815260200190815260200160002060060160009054906101000a900460ff169050919050565b60008060066000848152602001908152602001600020905060008160000154905060008260010160009054906101000a900460ff16905060008360010160019054906101000a900460ff16905060008460010160029054906101000a900460ff16905060011515831515148015610760575060011515821515145b8015610770575060011515811515145b156107835760019550505050505061078d565b6000955050505050505b919050565b6000806000806000806000806000600560008b8152602001908152602001600020905060008160000154905060008260020160009054906101000a900473ffffffffffffffffffffffffffffffffffffffff16905060008360010160009054906101000a900473ffffffffffffffffffffffffffffffffffffffff16905060008460030154905060008560040154905060008660050154905060008760060160009054906101000a900460ff16905086858786868787879f509f509f509f509f509f509f509f50505050505050505091939597509193959756fea2646970667358221220362a783b2930da3615e818ee3622a26d3452a9500f93f1d05d754bae25cc219a64736f6c63430006000033477261636520506572696f6420666f7220436f6e646974696f6e7320746f206265206d6574206d757374206265206c657373206f7220657175616c7320746f2039302064617973206f6e6c79",
  "source": "pragma solidity ^0.6.0 <0.6.11;\r\n\r\nimport \"./ComfreePropertyDataModel.sol\";\r\n\r\n/*\r\n* First contract to be created.  This will have an expiry date of the offer.\r\n*/\r\n\r\ncontract OfferContract is ComfreePropertyDataModel {\r\n\r\n\taddress owner;\r\n\r\n    struct conditionsList {\r\n        uint Id;\r\n        bool WallsPainted;\r\n        bool CarpetCleaned;\r\n        bool WindowsWashed;\r\n    }\r\n\r\n    struct offerContract {\r\n        uint id; \r\n        address buyerAddress;\r\n        address sellerAddress;\r\n        uint offerDate;\r\n        uint expiredDate;\r\n        uint offerAmount;\r\n        bool accepted;\r\n    }\r\n\r\n    mapping(uint => offerContract) offerContractDetails;\r\n    mapping(uint => conditionsList) conditionsListDetails;\r\n    uint numberDaysExpiration = 15;\r\n    uint expired;\r\n    \r\n\tconstructor (uint _id, address _sellerAddress, address _buyerAddress, uint256 _offerAmount, uint _gracePeriod) public {\r\n        /*\r\n        * Because this is supposed to be completely autonomous, the owner of this contract \r\n        * must be the seller\r\n        */\r\n        require(_gracePeriod <= 90, \"Grace Period for Conditions to be met must be less or equals to 90 days only\");\r\n        _gracePeriod += now;\r\n         expired += _gracePeriod;\r\n        owner = _sellerAddress;\r\n        //offerContractDetails.id = uint8(uint256(keccak256(block.timestamp, block.difficulty))%251);\r\n        offerContractDetails[_id] = offerContract(\r\n            _id,\r\n            _sellerAddress,\r\n            _buyerAddress,\r\n            now,\r\n            expired,\r\n            _offerAmount,\r\n            false\r\n        );\r\n    }\r\n\r\n    /*\r\n    * _address parameter can be either the seller or the buyer\r\n    */\r\n    function getOfferContractDetails(uint _ident) external view \r\n        returns(uint _id,\r\n                address _buyerAddress, \r\n                address _sellerAddress, \r\n                uint _offerDate, \r\n                uint _currentDate, \r\n                uint _expiredDate,\r\n                uint _offerAmount,\r\n                bool _accepted) {\r\n        offerContract storage offer = offerContractDetails[_ident];\r\n        uint __id = offer.id;\r\n        address __sellerAddress = offer.sellerAddress; \r\n        address __buyerAddress = offer.buyerAddress;\r\n        uint __offerDate = offer.offerDate;\r\n        uint __expiredDate = offer.expiredDate;\r\n        uint __offerAmount = offer.offerAmount;\r\n        bool __accepted = offer.accepted;\r\n        return (__id, \r\n                __buyerAddress,\r\n                __sellerAddress, \r\n                __offerDate, \r\n                __expiredDate, \r\n                __expiredDate,\r\n                __offerAmount, \r\n                __accepted\r\n        );\r\n    }\r\n\r\n    function accept(uint _id, bool _value) public returns(bool) {\r\n        /*\r\n        * Future update.  Must have mechanism to prevent changing accepted offer\r\n        * back to non-acception.  Depending on law of the land, the current\r\n        * instance of this contract may have to be nulled and a new contract\r\n        * must be opened.\r\n        */\r\n        offerContractDetails[_id].accepted = _value;\r\n        //must check if true emit, if false emit then kill contract \r\n        emit OfferAccepted(_id, _value);\r\n        return _value; //this will either return true or false\r\n    }\r\n\r\n    function isOfferAccepted(uint _id) public view returns(bool) {\r\n        return offerContractDetails[_id].accepted;\r\n    }\r\n\r\n    function isOfferExpired(uint _id) public returns(bool _value) {\r\n        /*if( now == offerContractObjects.expiredDate || now > offerContractObjects.expiredDate ) {\r\n            _value = true;\r\n        }\r\n        else {\r\n            _value = false;\r\n        }\r\n        return _value;*/\r\n    }\r\n\r\n    /****** Condition functions *****/\r\n    function setConditionGracePeriod(uint _gracePeriod) external {\r\n\r\n    }\r\n\r\n    function isConditionMet(uint _ident) public view returns(bool _value) {\r\n        conditionsList storage conditions = conditionsListDetails[_ident];\r\n        uint id = conditions.Id;\r\n        bool WallsPainted = conditions.WallsPainted;\r\n        bool CarpetCleaned = conditions.CarpetCleaned;\r\n        bool WindowsWashed = conditions.WindowsWashed;\r\n        if(WallsPainted == true && CarpetCleaned == true && WindowsWashed == true) {\r\n            return true;\r\n        }\r\n        else {\r\n            return false;\r\n        }           \r\n    }\r\n\r\n    function setConditionList(uint _ident, bool _WallsPainted, bool _CarpetCleaned,bool _WindowsWashed) external {\r\n        conditionsListDetails[_ident] = conditionsList(\r\n                                                _ident,\r\n                                                _WallsPainted,\r\n                                                _CarpetCleaned,\r\n                                                _WindowsWashed\r\n                                              );\r\n        if( _WallsPainted && _CarpetCleaned && _WindowsWashed ) {\r\n            //all sales conditions met\r\n            emit isAllSaleConditionsMet(true, true, true);\r\n        }\r\n    }\r\n\r\n    function getConditions(uint _ident) external view returns(bool _WallsPainted, bool _CarpetCleaned,bool _WindowsWashed) {\r\n        conditionsList storage conditions = conditionsListDetails[_ident];\r\n        uint ident = conditions.Id;\r\n        bool WallsPainted = conditions.WallsPainted;\r\n        bool CarpetCleaned = conditions.CarpetCleaned;\r\n        bool WindowsWashed = conditions.WindowsWashed;\r\n        //must return the struct as array for UI\r\n        return (WallsPainted,\r\n                CarpetCleaned,\r\n                WindowsWashed\r\n               );\r\n    }\r\n\r\n}\r\n",
  "sourcePath": "C:/Users/jay.sanchez/j4/crypto-pips/contracts/OfferContract.sol",
  "compiler": {
    "name": "solc",
    "version": "0.6.0+commit.26b70077.Emscripten.clang"
  },
  "schemaVersion": "3.3.2",
  "updatedAt": "2020-12-18T00:34:54.272Z",
  "networkType": "ethereum",
  "devdoc": {
    "methods": {}
  },
  "userdoc": {
    "methods": {
      "setConditionGracePeriod(uint256)": {
        "notice": "**** Condition functions ****"
      }
    }
  }
}