{
  "contractName": "PipERC20",
  "abi": [
    {
      "inputs": [
        {
          "internalType": "uint256",
          "name": "total",
          "type": "uint256"
        }
      ],
      "stateMutability": "nonpayable",
      "type": "constructor"
    },
    {
      "anonymous": false,
      "inputs": [
        {
          "indexed": true,
          "internalType": "address",
          "name": "tokenOwner",
          "type": "address"
        },
        {
          "indexed": true,
          "internalType": "address",
          "name": "spender",
          "type": "address"
        },
        {
          "indexed": false,
          "internalType": "uint256",
          "name": "tokens",
          "type": "uint256"
        }
      ],
      "name": "Approval",
      "type": "event"
    },
    {
      "anonymous": false,
      "inputs": [
        {
          "indexed": false,
          "internalType": "address",
          "name": "owner",
          "type": "address"
        },
        {
          "indexed": false,
          "internalType": "uint256",
          "name": "amountInflated",
          "type": "uint256"
        },
        {
          "indexed": false,
          "internalType": "uint256",
          "name": "newTokenSupply",
          "type": "uint256"
        }
      ],
      "name": "InflateToken",
      "type": "event"
    },
    {
      "anonymous": false,
      "inputs": [
        {
          "indexed": true,
          "internalType": "address",
          "name": "from",
          "type": "address"
        },
        {
          "indexed": true,
          "internalType": "address",
          "name": "to",
          "type": "address"
        },
        {
          "indexed": false,
          "internalType": "uint256",
          "name": "tokens",
          "type": "uint256"
        }
      ],
      "name": "Transfer",
      "type": "event"
    },
    {
      "inputs": [],
      "name": "name",
      "outputs": [
        {
          "internalType": "string",
          "name": "",
          "type": "string"
        }
      ],
      "stateMutability": "view",
      "type": "function",
      "constant": true
    },
    {
      "inputs": [],
      "name": "symbol",
      "outputs": [
        {
          "internalType": "string",
          "name": "",
          "type": "string"
        }
      ],
      "stateMutability": "view",
      "type": "function",
      "constant": true
    },
    {
      "inputs": [],
      "name": "decimals",
      "outputs": [
        {
          "internalType": "uint8",
          "name": "",
          "type": "uint8"
        }
      ],
      "stateMutability": "view",
      "type": "function",
      "constant": true
    },
    {
      "inputs": [],
      "name": "totalSupply",
      "outputs": [
        {
          "internalType": "uint256",
          "name": "",
          "type": "uint256"
        }
      ],
      "stateMutability": "view",
      "type": "function",
      "constant": true
    },
    {
      "inputs": [
        {
          "internalType": "uint256",
          "name": "_amount",
          "type": "uint256"
        }
      ],
      "name": "inflateTotalSupply",
      "outputs": [
        {
          "internalType": "uint256",
          "name": "",
          "type": "uint256"
        }
      ],
      "stateMutability": "nonpayable",
      "type": "function"
    },
    {
      "inputs": [
        {
          "internalType": "address",
          "name": "tokenOwner",
          "type": "address"
        }
      ],
      "name": "balanceOf",
      "outputs": [
        {
          "internalType": "uint256",
          "name": "",
          "type": "uint256"
        }
      ],
      "stateMutability": "view",
      "type": "function",
      "constant": true
    },
    {
      "inputs": [
        {
          "internalType": "address",
          "name": "_owner",
          "type": "address"
        },
        {
          "internalType": "address",
          "name": "delegate",
          "type": "address"
        }
      ],
      "name": "allowance",
      "outputs": [
        {
          "internalType": "uint256",
          "name": "",
          "type": "uint256"
        }
      ],
      "stateMutability": "view",
      "type": "function",
      "constant": true
    },
    {
      "inputs": [
        {
          "internalType": "address",
          "name": "receiver",
          "type": "address"
        },
        {
          "internalType": "uint256",
          "name": "numTokens",
          "type": "uint256"
        }
      ],
      "name": "transfer",
      "outputs": [
        {
          "internalType": "bool",
          "name": "",
          "type": "bool"
        }
      ],
      "stateMutability": "nonpayable",
      "type": "function"
    },
    {
      "inputs": [
        {
          "internalType": "address",
          "name": "delegate",
          "type": "address"
        },
        {
          "internalType": "uint256",
          "name": "numTokens",
          "type": "uint256"
        }
      ],
      "name": "approve",
      "outputs": [
        {
          "internalType": "bool",
          "name": "",
          "type": "bool"
        }
      ],
      "stateMutability": "nonpayable",
      "type": "function"
    },
    {
      "inputs": [
        {
          "internalType": "address",
          "name": "_owner",
          "type": "address"
        },
        {
          "internalType": "address",
          "name": "buyer",
          "type": "address"
        },
        {
          "internalType": "uint256",
          "name": "numTokens",
          "type": "uint256"
        }
      ],
      "name": "transferFrom",
      "outputs": [
        {
          "internalType": "bool",
          "name": "",
          "type": "bool"
        }
      ],
      "stateMutability": "nonpayable",
      "type": "function"
    }
  ],
  "bytecode": "0x608060405234801561001057600080fd5b50604051610f6d380380610f6d8339818101604052602081101561003357600080fd5b8101908080519060200190929190505050806002819055506002546000803373ffffffffffffffffffffffffffffffffffffffff1673ffffffffffffffffffffffffffffffffffffffff1681526020019081526020016000208190555033600360006101000a81548173ffffffffffffffffffffffffffffffffffffffff021916908373ffffffffffffffffffffffffffffffffffffffff16021790555050610e8c806100e16000396000f3fe608060405234801561001057600080fd5b506004361061009e5760003560e01c806370a082311161006657806370a082311461025457806395d89b41146102ac578063a9059cbb1461032f578063c3d3b94014610395578063dd62ed3e146103d75761009e565b806306fdde03146100a3578063095ea7b31461012657806318160ddd1461018c57806323b872dd146101aa578063313ce56714610230575b600080fd5b6100ab61044f565b6040518080602001828103825283818151815260200191508051906020019080838360005b838110156100eb5780820151818401526020810190506100d0565b50505050905090810190601f1680156101185780820380516001836020036101000a031916815260200191505b509250505060405180910390f35b6101726004803603604081101561013c57600080fd5b81019080803573ffffffffffffffffffffffffffffffffffffffff1690602001909291908035906020019092919050505061048c565b604051808215151515815260200191505060405180910390f35b61019461057e565b6040518082815260200191505060405180910390f35b610216600480360360608110156101c057600080fd5b81019080803573ffffffffffffffffffffffffffffffffffffffff169060200190929190803573ffffffffffffffffffffffffffffffffffffffff16906020019092919080359060200190929190505050610588565b604051808215151515815260200191505060405180910390f35b6102386109c1565b604051808260ff1660ff16815260200191505060405180910390f35b6102966004803603602081101561026a57600080fd5b81019080803573ffffffffffffffffffffffffffffffffffffffff1690602001909291905050506109ca565b6040518082815260200191505060405180910390f35b6102b4610a12565b6040518080602001828103825283818151815260200191508051906020019080838360005b838110156102f45780820151818401526020810190506102d9565b50505050905090810190601f1680156103215780820380516001836020036101000a031916815260200191505b509250505060405180910390f35b61037b6004803603604081101561034557600080fd5b81019080803573ffffffffffffffffffffffffffffffffffffffff16906020019092919080359060200190929190505050610a4f565b604051808215151515815260200191505060405180910390f35b6103c1600480360360208110156103ab57600080fd5b8101908080359060200190929190505050610c11565b6040518082815260200191505060405180910390f35b610439600480360360408110156103ed57600080fd5b81019080803573ffffffffffffffffffffffffffffffffffffffff169060200190929190803573ffffffffffffffffffffffffffffffffffffffff169060200190929190505050610dad565b6040518082815260200191505060405180910390f35b60606040518060400160405280600981526020017f5049502045524332300000000000000000000000000000000000000000000000815250905090565b600081600160003373ffffffffffffffffffffffffffffffffffffffff1673ffffffffffffffffffffffffffffffffffffffff16815260200190815260200160002060008573ffffffffffffffffffffffffffffffffffffffff1673ffffffffffffffffffffffffffffffffffffffff168152602001908152602001600020819055508273ffffffffffffffffffffffffffffffffffffffff163373ffffffffffffffffffffffffffffffffffffffff167f8c5be1e5ebec7d5bd14f71427d1e84f3dd0314c0f7b2291e5b200ac8c7c3b925846040518082815260200191505060405180910390a36001905092915050565b6000600254905090565b6000806000600360009054906101000a900473ffffffffffffffffffffffffffffffffffffffff1673ffffffffffffffffffffffffffffffffffffffff1673ffffffffffffffffffffffffffffffffffffffff168152602001908152602001600020548211156105f757600080fd5b60016000600360009054906101000a900473ffffffffffffffffffffffffffffffffffffffff1673ffffffffffffffffffffffffffffffffffffffff1673ffffffffffffffffffffffffffffffffffffffff16815260200190815260200160002060003373ffffffffffffffffffffffffffffffffffffffff1673ffffffffffffffffffffffffffffffffffffffff168152602001908152602001600020548211156106a257600080fd5b81600080600360009054906101000a900473ffffffffffffffffffffffffffffffffffffffff1673ffffffffffffffffffffffffffffffffffffffff1673ffffffffffffffffffffffffffffffffffffffff1681526020019081526020016000205403600080600360009054906101000a900473ffffffffffffffffffffffffffffffffffffffff1673ffffffffffffffffffffffffffffffffffffffff1673ffffffffffffffffffffffffffffffffffffffff168152602001908152602001600020819055508160016000600360009054906101000a900473ffffffffffffffffffffffffffffffffffffffff1673ffffffffffffffffffffffffffffffffffffffff1673ffffffffffffffffffffffffffffffffffffffff16815260200190815260200160002060003373ffffffffffffffffffffffffffffffffffffffff1673ffffffffffffffffffffffffffffffffffffffff168152602001908152602001600020540360016000600360009054906101000a900473ffffffffffffffffffffffffffffffffffffffff1673ffffffffffffffffffffffffffffffffffffffff1673ffffffffffffffffffffffffffffffffffffffff16815260200190815260200160002060003373ffffffffffffffffffffffffffffffffffffffff1673ffffffffffffffffffffffffffffffffffffffff16815260200190815260200160002081905550816000808573ffffffffffffffffffffffffffffffffffffffff1673ffffffffffffffffffffffffffffffffffffffff16815260200190815260200160002054016000808573ffffffffffffffffffffffffffffffffffffffff1673ffffffffffffffffffffffffffffffffffffffff168152602001908152602001600020819055508273ffffffffffffffffffffffffffffffffffffffff16600360009054906101000a900473ffffffffffffffffffffffffffffffffffffffff1673ffffffffffffffffffffffffffffffffffffffff167fddf252ad1be2c89b69c2b068fc378daa952ba7f163c4a11628f55a4df523b3ef846040518082815260200191505060405180910390a3600190509392505050565b60006008905090565b60008060008373ffffffffffffffffffffffffffffffffffffffff1673ffffffffffffffffffffffffffffffffffffffff168152602001908152602001600020549050919050565b60606040518060400160405280600581526020017f5049503230000000000000000000000000000000000000000000000000000000815250905090565b60008060003373ffffffffffffffffffffffffffffffffffffffff1673ffffffffffffffffffffffffffffffffffffffff16815260200190815260200160002054821115610a9c57600080fd5b816000803373ffffffffffffffffffffffffffffffffffffffff1673ffffffffffffffffffffffffffffffffffffffff16815260200190815260200160002054036000803373ffffffffffffffffffffffffffffffffffffffff1673ffffffffffffffffffffffffffffffffffffffff16815260200190815260200160002081905550816000808573ffffffffffffffffffffffffffffffffffffffff1673ffffffffffffffffffffffffffffffffffffffff16815260200190815260200160002054016000808573ffffffffffffffffffffffffffffffffffffffff1673ffffffffffffffffffffffffffffffffffffffff168152602001908152602001600020819055508273ffffffffffffffffffffffffffffffffffffffff163373ffffffffffffffffffffffffffffffffffffffff167fddf252ad1be2c89b69c2b068fc378daa952ba7f163c4a11628f55a4df523b3ef846040518082815260200191505060405180910390a36001905092915050565b6000600360009054906101000a900473ffffffffffffffffffffffffffffffffffffffff1673ffffffffffffffffffffffffffffffffffffffff163373ffffffffffffffffffffffffffffffffffffffff1614610c6d57600080fd5b81600281905550816000803373ffffffffffffffffffffffffffffffffffffffff1673ffffffffffffffffffffffffffffffffffffffff16815260200190815260200160002054016000803373ffffffffffffffffffffffffffffffffffffffff1673ffffffffffffffffffffffffffffffffffffffff168152602001908152602001600020819055507f38cbd5c49fe30a0b74fb17db2bf64fa42e298e35fc29c06c93dd0d664399527533836000803373ffffffffffffffffffffffffffffffffffffffff1673ffffffffffffffffffffffffffffffffffffffff16815260200190815260200160002054604051808473ffffffffffffffffffffffffffffffffffffffff1673ffffffffffffffffffffffffffffffffffffffff168152602001838152602001828152602001935050505060405180910390a1919050565b600060016000600360009054906101000a900473ffffffffffffffffffffffffffffffffffffffff1673ffffffffffffffffffffffffffffffffffffffff1673ffffffffffffffffffffffffffffffffffffffff16815260200190815260200160002060008373ffffffffffffffffffffffffffffffffffffffff1673ffffffffffffffffffffffffffffffffffffffff1681526020019081526020016000205490509291505056fea264697066735822122035d416a4dd7c08d051d8b567e066db38649ea605c10280e5ee916417f2a0398464736f6c63430006000033",
  "source": "pragma solidity ^0.6.0 < 0.6.11;\r\n\r\n\r\n/*\r\n* PipERC20 is an ERC20 standard.  Users must handle any false returns by a function call and must not assume that the function will not return a bool\r\n* This token is fungible or transferable.\r\n*/\r\n\r\ncontract PipERC20 {\r\n\r\n\t//ERC20 Required variables\r\n\tstring constant token_name = \"PIP ERC20\";\r\n\tstring constant token_symbol = \"PIP20\";\r\n\tuint8 constant token_decimal = 8;\r\n\t\r\n\tmapping(address => uint256) balances;\r\n\tmapping(address => mapping (address => uint256)) allowed;\r\n\tuint256 totalSupply_;\r\n\taddress private owner;\r\n\t\r\n\r\n\t/*\r\n\t* Standard event declaration required by ERC20 framework\r\n\t*/\r\n\tevent Approval(address indexed tokenOwner, address indexed spender, uint tokens);\r\n\tevent Transfer(address indexed from, address indexed to, uint tokens);\r\n\tevent InflateToken(address owner, uint256 amountInflated, uint256 newTokenSupply);\r\n\r\n\t/*\r\n\t* constructor is run once when it is deployed for the first time\r\n\t* unlike the standard constructor practice in an OOP\r\n\t* Only the deploying account can enter a contract’s constructor. When the contract is * started up, this function allocates available tokens to the ‘contract owner’ account.\r\n\t*/\r\n\tconstructor ( uint256 total ) public {\r\n\t\ttotalSupply_ = total;\r\n\t\tbalances[msg.sender] = totalSupply_;\r\n\t\towner = msg.sender;\r\n\t}\r\n\r\n\t/*\r\n\t* ERC20 Standard function but can be optional\r\n\t*/\r\n\tfunction name() public view returns (string memory) {\r\n\t\t\treturn(token_name);\r\n\t}\r\n\r\n\t/*\r\n\t* ERC20 Standard function but optional\r\n\t*/\r\n\tfunction symbol() public view returns (string memory) {\r\n\t\treturn(token_symbol);\r\n\t}\r\n\r\n\t/*\r\n\t* ERC 20 Standard but optional\r\n\t*/\r\n\tfunction decimals() public view returns (uint8) {\r\n\t\treturn(token_decimal);\r\n\t}\r\n\r\n\t/*\r\n\t* ERC20 required function declaration\r\n\t*/\r\n\tfunction totalSupply() public view returns (uint256) {\r\n\t\treturn totalSupply_;\r\n\t}\r\n\r\n\t/*\r\n\t* This function is to test if totalSupply intialized from constructor can actually be overriden\r\n\t* tested through Truffle console and amount unable to override - needed to prove that for myself\r\n\t*/\r\n\tfunction inflateTotalSupply(uint256 _amount) public returns (uint256) {\r\n\t\trequire(msg.sender == owner);\r\n\t\ttotalSupply_ = _amount;\r\n\t\t/*\r\n\t\t* Implement a function in here to determine inflation rate of token when increased\r\n\t\t* supply is manually called.\r\n\t\t*/\r\n\t\tbalances[msg.sender] = balances[msg.sender]+_amount;\r\n\t\t//owner address, amount to inflate token, new owner supply balance\r\n\t\temit InflateToken(msg.sender, _amount, balances[msg.sender]);\r\n    }\r\n\r\n\t/*\r\n\t* ERC20 required function declaration\r\n\t*/\r\n\tfunction balanceOf(address tokenOwner) public view returns (uint) {\r\n\t\treturn balances[tokenOwner]; \r\n\t}\r\n\r\n\t/*\r\n\t* ERC20 required function declaration\r\n\t*/\r\n\tfunction allowance(address _owner, address delegate) public view returns (uint) {\r\n  \t\treturn allowed[owner][delegate];\r\n\t}\r\n\r\n\t/*\r\n\t* ERC20 required function declaration\r\n\t*/\r\n\tfunction transfer(address receiver, uint numTokens) public returns (bool) {\r\n  \t\trequire(numTokens <= balances[msg.sender]);\r\n  \t\tbalances[msg.sender] = balances[msg.sender]-numTokens;\r\n  \t\tbalances[receiver] = balances[receiver] + numTokens;\r\n  \t\temit Transfer(msg.sender, receiver, numTokens);\r\n  \t\treturn true;\r\n\t}\r\n\r\n\t/*\r\n\t* @Params:\r\n\t* \tdelegate = spender\r\n\t*\tnumTokens = tokens to be transfered\r\n\t*/\r\n\tfunction approve(address delegate, uint numTokens)  public returns (bool) {\r\n\t\tallowed[msg.sender][delegate] = numTokens;\r\n  \t\temit Approval(msg.sender, delegate, numTokens);\r\n  \t\treturn true;\r\n\t}\r\n\r\n\t/*\r\n\t* ERC20 required function declaration\r\n\t*/\r\n\tfunction transferFrom(address _owner, address buyer, uint numTokens) public returns (bool) {\r\n  \t\trequire(numTokens <= balances[owner]);\r\n  \t\trequire(numTokens <= allowed[owner][msg.sender]);\r\n  \t\tbalances[owner] = balances[owner]-numTokens;\r\n  \t\tallowed[owner][msg.sender] = allowed[owner][msg.sender]-numTokens;\r\n  \t\tbalances[buyer] = balances[buyer]+numTokens;\r\n  \t\temit Transfer(owner, buyer, numTokens);\r\n\t\treturn true;\r\n\t}\r\n\r\n}\r\n",
  "sourcePath": "C:/Users/jay.sanchez/j4/crypto-pips/contracts/PipERC20.sol",
  "compiler": {
    "name": "solc",
    "version": "0.6.0+commit.26b70077.Emscripten.clang"
  },
  "schemaVersion": "3.3.2",
  "updatedAt": "2020-12-13T22:00:02.316Z",
  "networkType": "ethereum",
  "devdoc": {
    "methods": {}
  },
  "userdoc": {
    "methods": {}
  }
}