{
  "contractName": "PipERC20",
  "abi": [
    {
      "inputs": [
        {
          "internalType": "uint256",
          "name": "total",
          "type": "uint256"
        }
      ],
      "stateMutability": "nonpayable",
      "type": "constructor"
    },
    {
      "anonymous": false,
      "inputs": [
        {
          "indexed": true,
          "internalType": "address",
          "name": "tokenOwner",
          "type": "address"
        },
        {
          "indexed": true,
          "internalType": "address",
          "name": "spender",
          "type": "address"
        },
        {
          "indexed": false,
          "internalType": "uint256",
          "name": "tokens",
          "type": "uint256"
        }
      ],
      "name": "Approval",
      "type": "event"
    },
    {
      "anonymous": false,
      "inputs": [
        {
          "indexed": false,
          "internalType": "address",
          "name": "owner",
          "type": "address"
        },
        {
          "indexed": false,
          "internalType": "uint256",
          "name": "amountInflated",
          "type": "uint256"
        },
        {
          "indexed": false,
          "internalType": "uint256",
          "name": "newTokenSupply",
          "type": "uint256"
        }
      ],
      "name": "InflateToken",
      "type": "event"
    },
    {
      "anonymous": false,
      "inputs": [
        {
          "indexed": true,
          "internalType": "address",
          "name": "from",
          "type": "address"
        },
        {
          "indexed": true,
          "internalType": "address",
          "name": "to",
          "type": "address"
        },
        {
          "indexed": false,
          "internalType": "uint256",
          "name": "tokens",
          "type": "uint256"
        }
      ],
      "name": "Transfer",
      "type": "event"
    },
    {
      "inputs": [],
      "name": "totalSupply",
      "outputs": [
        {
          "internalType": "uint256",
          "name": "",
          "type": "uint256"
        }
      ],
      "stateMutability": "view",
      "type": "function",
      "constant": true
    },
    {
      "inputs": [
        {
          "internalType": "uint256",
          "name": "_amount",
          "type": "uint256"
        }
      ],
      "name": "inflateTotalSupply",
      "outputs": [
        {
          "internalType": "uint256",
          "name": "",
          "type": "uint256"
        }
      ],
      "stateMutability": "nonpayable",
      "type": "function"
    },
    {
      "inputs": [
        {
          "internalType": "address",
          "name": "tokenOwner",
          "type": "address"
        }
      ],
      "name": "balanceOf",
      "outputs": [
        {
          "internalType": "uint256",
          "name": "",
          "type": "uint256"
        }
      ],
      "stateMutability": "view",
      "type": "function",
      "constant": true
    },
    {
      "inputs": [
        {
          "internalType": "address",
          "name": "_owner",
          "type": "address"
        },
        {
          "internalType": "address",
          "name": "delegate",
          "type": "address"
        }
      ],
      "name": "allowance",
      "outputs": [
        {
          "internalType": "uint256",
          "name": "",
          "type": "uint256"
        }
      ],
      "stateMutability": "view",
      "type": "function",
      "constant": true
    },
    {
      "inputs": [
        {
          "internalType": "address",
          "name": "receiver",
          "type": "address"
        },
        {
          "internalType": "uint256",
          "name": "numTokens",
          "type": "uint256"
        }
      ],
      "name": "transfer",
      "outputs": [
        {
          "internalType": "bool",
          "name": "",
          "type": "bool"
        }
      ],
      "stateMutability": "nonpayable",
      "type": "function"
    },
    {
      "inputs": [
        {
          "internalType": "address",
          "name": "delegate",
          "type": "address"
        },
        {
          "internalType": "uint256",
          "name": "numTokens",
          "type": "uint256"
        }
      ],
      "name": "approve",
      "outputs": [
        {
          "internalType": "bool",
          "name": "",
          "type": "bool"
        }
      ],
      "stateMutability": "nonpayable",
      "type": "function"
    },
    {
      "inputs": [
        {
          "internalType": "address",
          "name": "_owner",
          "type": "address"
        },
        {
          "internalType": "address",
          "name": "buyer",
          "type": "address"
        },
        {
          "internalType": "uint256",
          "name": "numTokens",
          "type": "uint256"
        }
      ],
      "name": "transferFrom",
      "outputs": [
        {
          "internalType": "bool",
          "name": "",
          "type": "bool"
        }
      ],
      "stateMutability": "nonpayable",
      "type": "function"
    }
  ],
  "bytecode": "0x608060405234801561001057600080fd5b50604051610d9f380380610d9f8339818101604052602081101561003357600080fd5b8101908080519060200190929190505050806002819055506002546000803373ffffffffffffffffffffffffffffffffffffffff1673ffffffffffffffffffffffffffffffffffffffff1681526020019081526020016000208190555033600360006101000a81548173ffffffffffffffffffffffffffffffffffffffff021916908373ffffffffffffffffffffffffffffffffffffffff16021790555050610cbe806100e16000396000f3fe608060405234801561001057600080fd5b506004361061007d5760003560e01c806370a082311161005b57806370a082311461018c578063a9059cbb146101e4578063c3d3b9401461024a578063dd62ed3e1461028c5761007d565b8063095ea7b31461008257806318160ddd146100e857806323b872dd14610106575b600080fd5b6100ce6004803603604081101561009857600080fd5b81019080803573ffffffffffffffffffffffffffffffffffffffff16906020019092919080359060200190929190505050610304565b604051808215151515815260200191505060405180910390f35b6100f06103f6565b6040518082815260200191505060405180910390f35b6101726004803603606081101561011c57600080fd5b81019080803573ffffffffffffffffffffffffffffffffffffffff169060200190929190803573ffffffffffffffffffffffffffffffffffffffff16906020019092919080359060200190929190505050610400565b604051808215151515815260200191505060405180910390f35b6101ce600480360360208110156101a257600080fd5b81019080803573ffffffffffffffffffffffffffffffffffffffff169060200190929190505050610839565b6040518082815260200191505060405180910390f35b610230600480360360408110156101fa57600080fd5b81019080803573ffffffffffffffffffffffffffffffffffffffff16906020019092919080359060200190929190505050610881565b604051808215151515815260200191505060405180910390f35b6102766004803603602081101561026057600080fd5b8101908080359060200190929190505050610a43565b6040518082815260200191505060405180910390f35b6102ee600480360360408110156102a257600080fd5b81019080803573ffffffffffffffffffffffffffffffffffffffff169060200190929190803573ffffffffffffffffffffffffffffffffffffffff169060200190929190505050610bdf565b6040518082815260200191505060405180910390f35b600081600160003373ffffffffffffffffffffffffffffffffffffffff1673ffffffffffffffffffffffffffffffffffffffff16815260200190815260200160002060008573ffffffffffffffffffffffffffffffffffffffff1673ffffffffffffffffffffffffffffffffffffffff168152602001908152602001600020819055508273ffffffffffffffffffffffffffffffffffffffff163373ffffffffffffffffffffffffffffffffffffffff167f8c5be1e5ebec7d5bd14f71427d1e84f3dd0314c0f7b2291e5b200ac8c7c3b925846040518082815260200191505060405180910390a36001905092915050565b6000600254905090565b6000806000600360009054906101000a900473ffffffffffffffffffffffffffffffffffffffff1673ffffffffffffffffffffffffffffffffffffffff1673ffffffffffffffffffffffffffffffffffffffff1681526020019081526020016000205482111561046f57600080fd5b60016000600360009054906101000a900473ffffffffffffffffffffffffffffffffffffffff1673ffffffffffffffffffffffffffffffffffffffff1673ffffffffffffffffffffffffffffffffffffffff16815260200190815260200160002060003373ffffffffffffffffffffffffffffffffffffffff1673ffffffffffffffffffffffffffffffffffffffff1681526020019081526020016000205482111561051a57600080fd5b81600080600360009054906101000a900473ffffffffffffffffffffffffffffffffffffffff1673ffffffffffffffffffffffffffffffffffffffff1673ffffffffffffffffffffffffffffffffffffffff1681526020019081526020016000205403600080600360009054906101000a900473ffffffffffffffffffffffffffffffffffffffff1673ffffffffffffffffffffffffffffffffffffffff1673ffffffffffffffffffffffffffffffffffffffff168152602001908152602001600020819055508160016000600360009054906101000a900473ffffffffffffffffffffffffffffffffffffffff1673ffffffffffffffffffffffffffffffffffffffff1673ffffffffffffffffffffffffffffffffffffffff16815260200190815260200160002060003373ffffffffffffffffffffffffffffffffffffffff1673ffffffffffffffffffffffffffffffffffffffff168152602001908152602001600020540360016000600360009054906101000a900473ffffffffffffffffffffffffffffffffffffffff1673ffffffffffffffffffffffffffffffffffffffff1673ffffffffffffffffffffffffffffffffffffffff16815260200190815260200160002060003373ffffffffffffffffffffffffffffffffffffffff1673ffffffffffffffffffffffffffffffffffffffff16815260200190815260200160002081905550816000808573ffffffffffffffffffffffffffffffffffffffff1673ffffffffffffffffffffffffffffffffffffffff16815260200190815260200160002054016000808573ffffffffffffffffffffffffffffffffffffffff1673ffffffffffffffffffffffffffffffffffffffff168152602001908152602001600020819055508273ffffffffffffffffffffffffffffffffffffffff16600360009054906101000a900473ffffffffffffffffffffffffffffffffffffffff1673ffffffffffffffffffffffffffffffffffffffff167fddf252ad1be2c89b69c2b068fc378daa952ba7f163c4a11628f55a4df523b3ef846040518082815260200191505060405180910390a3600190509392505050565b60008060008373ffffffffffffffffffffffffffffffffffffffff1673ffffffffffffffffffffffffffffffffffffffff168152602001908152602001600020549050919050565b60008060003373ffffffffffffffffffffffffffffffffffffffff1673ffffffffffffffffffffffffffffffffffffffff168152602001908152602001600020548211156108ce57600080fd5b816000803373ffffffffffffffffffffffffffffffffffffffff1673ffffffffffffffffffffffffffffffffffffffff16815260200190815260200160002054036000803373ffffffffffffffffffffffffffffffffffffffff1673ffffffffffffffffffffffffffffffffffffffff16815260200190815260200160002081905550816000808573ffffffffffffffffffffffffffffffffffffffff1673ffffffffffffffffffffffffffffffffffffffff16815260200190815260200160002054016000808573ffffffffffffffffffffffffffffffffffffffff1673ffffffffffffffffffffffffffffffffffffffff168152602001908152602001600020819055508273ffffffffffffffffffffffffffffffffffffffff163373ffffffffffffffffffffffffffffffffffffffff167fddf252ad1be2c89b69c2b068fc378daa952ba7f163c4a11628f55a4df523b3ef846040518082815260200191505060405180910390a36001905092915050565b6000600360009054906101000a900473ffffffffffffffffffffffffffffffffffffffff1673ffffffffffffffffffffffffffffffffffffffff163373ffffffffffffffffffffffffffffffffffffffff1614610a9f57600080fd5b81600281905550816000803373ffffffffffffffffffffffffffffffffffffffff1673ffffffffffffffffffffffffffffffffffffffff16815260200190815260200160002054016000803373ffffffffffffffffffffffffffffffffffffffff1673ffffffffffffffffffffffffffffffffffffffff168152602001908152602001600020819055507f38cbd5c49fe30a0b74fb17db2bf64fa42e298e35fc29c06c93dd0d664399527533836000803373ffffffffffffffffffffffffffffffffffffffff1673ffffffffffffffffffffffffffffffffffffffff16815260200190815260200160002054604051808473ffffffffffffffffffffffffffffffffffffffff1673ffffffffffffffffffffffffffffffffffffffff168152602001838152602001828152602001935050505060405180910390a1919050565b600060016000600360009054906101000a900473ffffffffffffffffffffffffffffffffffffffff1673ffffffffffffffffffffffffffffffffffffffff1673ffffffffffffffffffffffffffffffffffffffff16815260200190815260200160002060008373ffffffffffffffffffffffffffffffffffffffff1673ffffffffffffffffffffffffffffffffffffffff1681526020019081526020016000205490509291505056fea2646970667358221220ae3ecf1cf63ec42ebc526ddb7a06e7eb092adbc683f200e52c9dfe16c41ce32964736f6c63430006000033",
  "source": "pragma solidity ^0.6.0 < 0.6.11;\n\n\n/*\n*\tPipERC20 is an ERC20 standard\n*/\n\n/*\n* Token economics\n* Token (stock) price of a company is calculated when a company goes public, an event\n* called and initial public offering (IPO). This is when a company pays an investment\n* bank to use very complex formulas and valuation techniques to derive a company's value * and to determine how many shares will be offered to the public and at what price. \n* For example,* a company whose value is estimated at $100 million may want to issue 10\n* million shares at $10 per share or they may want to issue 20 million at $5 a share.\n*/\ncontract PipERC20 {\n\n\t//walletaddress = balance of wallet\n\tmapping(address => uint256) balances;\n\t//wallet address = anotherMapping(walletaddress = approvedwithdrawalsum)\n\tmapping(address => mapping (address => uint256)) allowed;\n\tuint256 totalSupply_;\n\taddress private owner;\n\t\n\n\t/*\n\t* Standard event declaration required by ERC20 framework\n\t*/\n\tevent Approval(address indexed tokenOwner, address indexed spender, uint tokens);\n\tevent Transfer(address indexed from, address indexed to, uint tokens);\n\tevent InflateToken(address owner, uint256 amountInflated, uint256 newTokenSupply);\n\n\t/*\n\t* constructor is run once when it is deployed for the first time\n\t* unlike the standard constructor practice in an OOP\n\t* Only the deploying account can enter a contract’s constructor. When the contract is * started up, this function allocates available tokens to the ‘contract owner’ account.\n\t*/\n\tconstructor ( uint256 total ) public {\n\t\ttotalSupply_ = total;\n\t\tbalances[msg.sender] = totalSupply_;\n\t\towner = msg.sender;\n\t}\n\n\t/*\n\t* ERC20 required function declaration\n\t*/\n\tfunction totalSupply() public view returns (uint256) {\n\t\treturn totalSupply_;\n\t}\n\n\t/*\n\t* This function is to test if totalSupply intialized from constructor can actually be overriden\n\t* tested through Truffle console and amount unable to override - needed to prove that for myself\n\t*/\n\tfunction inflateTotalSupply(uint256 _amount) public returns (uint256) {\n\t\trequire(msg.sender == owner);\n\t\ttotalSupply_ = _amount;\n\t\t/*\n\t\t* Implement a function in here to determine inflation rate of token when increased\n\t\t* supply is manually called.\n\t\t*/\n\t\tbalances[msg.sender] = balances[msg.sender]+_amount;\n\t\t//owner address, amount to inflate token, new owner supply balance\n\t\temit InflateToken(msg.sender, _amount, balances[msg.sender]);\n    }\n\n\tfunction balanceOf(address tokenOwner) public view returns (uint) {\n\t\treturn balances[tokenOwner]; \n\t}\n\n\tfunction allowance(address _owner, address delegate) public view returns (uint) {\n  \t\treturn allowed[owner][delegate];\n\t}\n\n\tfunction transfer(address receiver, uint numTokens) public returns (bool) {\n  \t\trequire(numTokens <= balances[msg.sender]);\n  \t\tbalances[msg.sender] = balances[msg.sender]-numTokens;\n  \t\tbalances[receiver] = balances[receiver] + numTokens;\n  \t\temit Transfer(msg.sender, receiver, numTokens);\n  \t\treturn true;\n\t}\n\n\t/*\n\t* @Params:\n\t* \tdelegate = spender\n\t*\tnumTokens = tokens to be transfered\n\t*/\n\tfunction approve(address delegate, uint numTokens)  public returns (bool) {\n\t\tallowed[msg.sender][delegate] = numTokens;\n  \t\temit Approval(msg.sender, delegate, numTokens);\n  \t\treturn true;\n\t}\n\n\tfunction transferFrom(address _owner, address buyer, uint numTokens) public returns (bool) {\n  \t\trequire(numTokens <= balances[owner]);\n  \t\trequire(numTokens <= allowed[owner][msg.sender]);\n  \t\tbalances[owner] = balances[owner]-numTokens;\n  \t\tallowed[owner][msg.sender] = allowed[owner][msg.sender]-numTokens;\n  \t\tbalances[buyer] = balances[buyer]+numTokens;\n  \t\temit Transfer(owner, buyer, numTokens);\n\t\treturn true;\n\t}\n\n}\n",
  "sourcePath": "/Users/jaypersanchez/j4/crypto-pips/contracts/PipERC20.sol",
  "compiler": {
    "name": "solc",
    "version": "0.6.0+commit.26b70077.Emscripten.clang"
  },
  "schemaVersion": "3.0.23",
  "updatedAt": "2020-07-25T15:23:20.811Z",
  "networkType": "ethereum",
  "devdoc": {
    "methods": {}
  },
  "userdoc": {
    "methods": {}
  }
}