{
  "contractName": "Properties",
  "abi": [
    {
      "inputs": [
        {
          "internalType": "uint256",
          "name": "total",
          "type": "uint256"
        }
      ],
      "stateMutability": "nonpayable",
      "type": "constructor"
    },
    {
      "anonymous": false,
      "inputs": [
        {
          "indexed": true,
          "internalType": "address",
          "name": "_owner",
          "type": "address"
        },
        {
          "indexed": true,
          "internalType": "address",
          "name": "_approved",
          "type": "address"
        },
        {
          "indexed": true,
          "internalType": "uint256",
          "name": "_tokenId",
          "type": "uint256"
        }
      ],
      "name": "Approval",
      "type": "event"
    },
    {
      "anonymous": false,
      "inputs": [
        {
          "indexed": true,
          "internalType": "address",
          "name": "_owner",
          "type": "address"
        },
        {
          "indexed": true,
          "internalType": "address",
          "name": "_operator",
          "type": "address"
        },
        {
          "indexed": false,
          "internalType": "bool",
          "name": "_approved",
          "type": "bool"
        }
      ],
      "name": "ApprovalForAll",
      "type": "event"
    },
    {
      "anonymous": false,
      "inputs": [
        {
          "indexed": true,
          "internalType": "address",
          "name": "_from",
          "type": "address"
        },
        {
          "indexed": true,
          "internalType": "address",
          "name": "_to",
          "type": "address"
        },
        {
          "indexed": true,
          "internalType": "uint256",
          "name": "_tokenId",
          "type": "uint256"
        }
      ],
      "name": "Transfer",
      "type": "event"
    },
    {
      "anonymous": false,
      "inputs": [
        {
          "indexed": false,
          "internalType": "address",
          "name": "propertyOwnerAddress",
          "type": "address"
        },
        {
          "indexed": false,
          "internalType": "uint256",
          "name": "propertyId",
          "type": "uint256"
        }
      ],
      "name": "propertyOwnerAdded",
      "type": "event"
    },
    {
      "anonymous": false,
      "inputs": [
        {
          "indexed": false,
          "internalType": "address",
          "name": "property_Owner",
          "type": "address"
        },
        {
          "indexed": false,
          "internalType": "uint256",
          "name": "value",
          "type": "uint256"
        }
      ],
      "name": "propertyValueSet",
      "type": "event"
    },
    {
      "inputs": [
        {
          "internalType": "address",
          "name": "_owner",
          "type": "address"
        },
        {
          "internalType": "address",
          "name": "_operator",
          "type": "address"
        }
      ],
      "name": "isApprovedForAll",
      "outputs": [
        {
          "internalType": "bool",
          "name": "",
          "type": "bool"
        }
      ],
      "stateMutability": "view",
      "type": "function",
      "constant": true
    },
    {
      "inputs": [
        {
          "internalType": "uint256",
          "name": "_tokenId",
          "type": "uint256"
        }
      ],
      "name": "getApproved",
      "outputs": [
        {
          "internalType": "address",
          "name": "",
          "type": "address"
        }
      ],
      "stateMutability": "view",
      "type": "function",
      "constant": true
    },
    {
      "inputs": [
        {
          "internalType": "address",
          "name": "_operator",
          "type": "address"
        },
        {
          "internalType": "bool",
          "name": "_approved",
          "type": "bool"
        }
      ],
      "name": "setApprovalForAll",
      "outputs": [],
      "stateMutability": "nonpayable",
      "type": "function"
    },
    {
      "inputs": [
        {
          "internalType": "address",
          "name": "_approved",
          "type": "address"
        },
        {
          "internalType": "uint256",
          "name": "_tokenId",
          "type": "uint256"
        }
      ],
      "name": "approve",
      "outputs": [],
      "stateMutability": "payable",
      "type": "function",
      "payable": true
    },
    {
      "inputs": [
        {
          "internalType": "address",
          "name": "_from",
          "type": "address"
        },
        {
          "internalType": "address",
          "name": "_to",
          "type": "address"
        },
        {
          "internalType": "uint256",
          "name": "_tokenId",
          "type": "uint256"
        }
      ],
      "name": "transferFrom",
      "outputs": [],
      "stateMutability": "payable",
      "type": "function",
      "payable": true
    },
    {
      "inputs": [
        {
          "internalType": "address",
          "name": "_from",
          "type": "address"
        },
        {
          "internalType": "address",
          "name": "_to",
          "type": "address"
        },
        {
          "internalType": "uint256",
          "name": "_tokenId",
          "type": "uint256"
        }
      ],
      "name": "safeTransferFrom",
      "outputs": [],
      "stateMutability": "payable",
      "type": "function",
      "payable": true
    },
    {
      "inputs": [
        {
          "internalType": "address",
          "name": "_from",
          "type": "address"
        },
        {
          "internalType": "address",
          "name": "_to",
          "type": "address"
        },
        {
          "internalType": "uint256",
          "name": "_tokenId",
          "type": "uint256"
        },
        {
          "internalType": "bytes",
          "name": "data",
          "type": "bytes"
        }
      ],
      "name": "safeTransferFrom",
      "outputs": [],
      "stateMutability": "payable",
      "type": "function",
      "payable": true
    },
    {
      "inputs": [
        {
          "internalType": "address",
          "name": "_propertyOwnerAddress",
          "type": "address"
        },
        {
          "internalType": "uint256",
          "name": "_propertyId",
          "type": "uint256"
        }
      ],
      "name": "addPropertyOwner",
      "outputs": [],
      "stateMutability": "nonpayable",
      "type": "function"
    },
    {
      "inputs": [
        {
          "internalType": "uint256",
          "name": "_propertyId",
          "type": "uint256"
        }
      ],
      "name": "ownerOf",
      "outputs": [
        {
          "internalType": "address",
          "name": "",
          "type": "address"
        }
      ],
      "stateMutability": "view",
      "type": "function",
      "constant": true
    },
    {
      "inputs": [
        {
          "internalType": "address",
          "name": "_propertyOwner",
          "type": "address"
        },
        {
          "internalType": "uint256",
          "name": "value",
          "type": "uint256"
        }
      ],
      "name": "setPropertyValue",
      "outputs": [],
      "stateMutability": "nonpayable",
      "type": "function"
    },
    {
      "inputs": [
        {
          "internalType": "address",
          "name": "propertyOwner",
          "type": "address"
        }
      ],
      "name": "balanceOf",
      "outputs": [
        {
          "internalType": "uint256",
          "name": "",
          "type": "uint256"
        }
      ],
      "stateMutability": "view",
      "type": "function",
      "constant": true
    }
  ],
  "bytecode": "0x608060405234801561001057600080fd5b5060405161087e38038061087e8339818101604052602081101561003357600080fd5b8101908080519060200190929190505050336000806101000a81548173ffffffffffffffffffffffffffffffffffffffff021916908373ffffffffffffffffffffffffffffffffffffffff160217905550506107ea806100946000396000f3fe60806040526004361061009c5760003560e01c806370a082311161006457806370a08231146102c15780638891cab31461032657806393a5f4bb14610381578063a22cb465146103dc578063b88d4fde14610439578063e985e9c5146104fc5761009c565b8063081812fc146100a1578063095ea7b31461011c57806323b872dd1461016a57806342842e0e146101d85780636352211e14610246575b600080fd5b3480156100ad57600080fd5b506100da600480360360208110156100c457600080fd5b8101908080359060200190929190505050610585565b604051808273ffffffffffffffffffffffffffffffffffffffff1673ffffffffffffffffffffffffffffffffffffffff16815260200191505060405180910390f35b6101686004803603604081101561013257600080fd5b81019080803573ffffffffffffffffffffffffffffffffffffffff1690602001909291908035906020019092919050505061058c565b005b6101d66004803603606081101561018057600080fd5b81019080803573ffffffffffffffffffffffffffffffffffffffff169060200190929190803573ffffffffffffffffffffffffffffffffffffffff16906020019092919080359060200190929190505050610590565b005b610244600480360360608110156101ee57600080fd5b81019080803573ffffffffffffffffffffffffffffffffffffffff169060200190929190803573ffffffffffffffffffffffffffffffffffffffff16906020019092919080359060200190929190505050610595565b005b34801561025257600080fd5b5061027f6004803603602081101561026957600080fd5b810190808035906020019092919050505061059a565b604051808273ffffffffffffffffffffffffffffffffffffffff1673ffffffffffffffffffffffffffffffffffffffff16815260200191505060405180910390f35b3480156102cd57600080fd5b50610310600480360360208110156102e457600080fd5b81019080803573ffffffffffffffffffffffffffffffffffffffff1690602001909291905050506105dc565b6040518082815260200191505060405180910390f35b34801561033257600080fd5b5061037f6004803603604081101561034957600080fd5b81019080803573ffffffffffffffffffffffffffffffffffffffff1690602001909291908035906020019092919050505061062a565b005b34801561038d57600080fd5b506103da600480360360408110156103a457600080fd5b81019080803573ffffffffffffffffffffffffffffffffffffffff169060200190929190803590602001909291905050506106dd565b005b3480156103e857600080fd5b50610437600480360360408110156103ff57600080fd5b81019080803573ffffffffffffffffffffffffffffffffffffffff16906020019092919080351515906020019092919050505061079e565b005b6104fa6004803603608081101561044f57600080fd5b81019080803573ffffffffffffffffffffffffffffffffffffffff169060200190929190803573ffffffffffffffffffffffffffffffffffffffff16906020019092919080359060200190929190803590602001906401000000008111156104b657600080fd5b8201836020820111156104c857600080fd5b803590602001918460018302840111640100000000831117156104ea57600080fd5b90919293919293905050506107a2565b005b34801561050857600080fd5b5061056b6004803603604081101561051f57600080fd5b81019080803573ffffffffffffffffffffffffffffffffffffffff169060200190929190803573ffffffffffffffffffffffffffffffffffffffff1690602001909291905050506107a9565b604051808215151515815260200191505060405180910390f35b6000919050565b5050565b505050565b505050565b6000806004600084815260200190815260200160002060009054906101000a900473ffffffffffffffffffffffffffffffffffffffff16905080915050919050565b600080600260008473ffffffffffffffffffffffffffffffffffffffff1673ffffffffffffffffffffffffffffffffffffffff16815260200190815260200160002054905080915050919050565b80600260008473ffffffffffffffffffffffffffffffffffffffff1673ffffffffffffffffffffffffffffffffffffffff168152602001908152602001600020819055507f0677f71e34710b9f618d7e57f7916c8c29c5236597513f4eebc72fd811065e748282604051808373ffffffffffffffffffffffffffffffffffffffff1673ffffffffffffffffffffffffffffffffffffffff1681526020018281526020019250505060405180910390a15050565b816004600083815260200190815260200160002060006101000a81548173ffffffffffffffffffffffffffffffffffffffff021916908373ffffffffffffffffffffffffffffffffffffffff1602179055507fea5107ee5e1a9b13c131428505914efd1cd117261d0a6c93a14812bb8c6d1d2d8282604051808373ffffffffffffffffffffffffffffffffffffffff1673ffffffffffffffffffffffffffffffffffffffff1681526020018281526020019250505060405180910390a15050565b5050565b5050505050565b60008090509291505056fea2646970667358221220c893af1e84fa0cd1e4c036a9cfcad773606ac4198410f109ba4943ecdac358cb64736f6c63430006000033",
  "source": "pragma solidity ^0.6.0 <0.6.11;\r\n\r\nimport \"./interface/IERC721.sol\";\r\n\r\n/*\r\n* This smart contract represents a class of property assets both for private and commercial properties.\r\n* This is the reason for using ERC721 standard\r\n*/\r\ncontract Properties is IERC721 {\r\n\r\n    address owner;\r\n    uint256 tokenId;\r\n    //represents the value of the property\r\n    mapping(address => uint256) propertyValue;\r\n\tmapping(address => mapping (address => uint256)) allowed;\r\n    //uint256 represents the ID of the token for the property.  This can be in a form of property title identification\r\n    mapping(uint256 => address) propertyOwner;\r\n\r\n    event propertyOwnerAdded(address propertyOwnerAddress, uint256 propertyId);\r\n    event propertyValueSet(address property_Owner, uint256 value);\r\n\r\n    constructor ( uint256 total ) public {\r\n\t\towner = msg.sender;\r\n\t}\r\n\r\n    function isApprovedForAll(address _owner, address _operator) external override view returns (bool) {\r\n        return(false);\r\n    }\r\n\r\n    function getApproved(uint256 _tokenId) external override view returns (address) {\r\n\r\n    }\r\n\r\n    function setApprovalForAll(address _operator, bool _approved) external override {\r\n\r\n    }\r\n \r\n    function approve(address _approved, uint256 _tokenId) external override payable {\r\n\r\n    }\r\n\r\n    function transferFrom(address _from, address _to, uint256 _tokenId) external override payable {\r\n\r\n    }\r\n\r\n    function safeTransferFrom(address _from, address _to, uint256 _tokenId, bytes calldata data) external override payable {\r\n\r\n    }\r\n\r\n    function safeTransferFrom(address _from, address _to, uint256 _tokenId) external override payable {\r\n\r\n    }\r\n\r\n    /*\r\n    *   @TODO still need to implement\r\n    *  must create a mapping of token ownership per id\r\n    */\r\n    function addPropertyOwner(address _propertyOwnerAddress, uint256 _propertyId) external {\r\n        propertyOwner[_propertyId] = _propertyOwnerAddress;\r\n        emit propertyOwnerAdded(_propertyOwnerAddress, _propertyId);\r\n    }\r\n\r\n    function ownerOf(uint256 _propertyId) external override view returns (address) {\r\n        address addy = propertyOwner[_propertyId];\r\n        return  (addy);\r\n    }\r\n\r\n    //contains the value of all properties owned by a specific address\r\n    function setPropertyValue(address _propertyOwner, uint256 value) external {\r\n        propertyValue[_propertyOwner] = value;\r\n        emit propertyValueSet(_propertyOwner, value);\r\n    }\r\n\r\n    function balanceOf(address propertyOwner) public override view returns (uint256) {\r\n        uint256 propertyValue = propertyValue[propertyOwner];\r\n\t\treturn propertyValue; \r\n\t}\r\n\r\n}",
  "sourcePath": "C:/Users/jay.sanchez/j4/crypto-pips/contracts/Properties.sol",
  "compiler": {
    "name": "solc",
    "version": "0.6.0+commit.26b70077.Emscripten.clang"
  },
  "schemaVersion": "3.3.2",
  "updatedAt": "2020-12-13T02:10:18.299Z",
  "networkType": "ethereum",
  "devdoc": {
    "methods": {}
  },
  "userdoc": {
    "methods": {}
  }
}