{
  "contractName": "Properties",
  "abi": [
    {
      "inputs": [
        {
          "internalType": "address",
          "name": "propertyOwnerAddress",
          "type": "address"
        },
        {
          "internalType": "uint256",
          "name": "_initialPropertyValue",
          "type": "uint256"
        },
        {
          "internalType": "uint256",
          "name": "_tokenId",
          "type": "uint256"
        }
      ],
      "stateMutability": "nonpayable",
      "type": "constructor"
    },
    {
      "anonymous": false,
      "inputs": [
        {
          "indexed": true,
          "internalType": "address",
          "name": "_owner",
          "type": "address"
        },
        {
          "indexed": true,
          "internalType": "address",
          "name": "_approved",
          "type": "address"
        },
        {
          "indexed": true,
          "internalType": "uint256",
          "name": "_tokenId",
          "type": "uint256"
        }
      ],
      "name": "Approval",
      "type": "event"
    },
    {
      "anonymous": false,
      "inputs": [
        {
          "indexed": true,
          "internalType": "address",
          "name": "_owner",
          "type": "address"
        },
        {
          "indexed": true,
          "internalType": "address",
          "name": "_operator",
          "type": "address"
        },
        {
          "indexed": false,
          "internalType": "bool",
          "name": "_approved",
          "type": "bool"
        }
      ],
      "name": "ApprovalForAll",
      "type": "event"
    },
    {
      "anonymous": false,
      "inputs": [
        {
          "indexed": true,
          "internalType": "address",
          "name": "_from",
          "type": "address"
        },
        {
          "indexed": true,
          "internalType": "address",
          "name": "_to",
          "type": "address"
        },
        {
          "indexed": true,
          "internalType": "uint256",
          "name": "_tokenId",
          "type": "uint256"
        }
      ],
      "name": "Transfer",
      "type": "event"
    },
    {
      "anonymous": false,
      "inputs": [
        {
          "indexed": false,
          "internalType": "address",
          "name": "property_Owner",
          "type": "address"
        },
        {
          "indexed": false,
          "internalType": "uint256",
          "name": "value",
          "type": "uint256"
        }
      ],
      "name": "propertyValueSet",
      "type": "event"
    },
    {
      "inputs": [
        {
          "internalType": "address",
          "name": "_owner",
          "type": "address"
        },
        {
          "internalType": "address",
          "name": "_operator",
          "type": "address"
        }
      ],
      "name": "isApprovedForAll",
      "outputs": [
        {
          "internalType": "bool",
          "name": "",
          "type": "bool"
        }
      ],
      "stateMutability": "view",
      "type": "function",
      "constant": true
    },
    {
      "inputs": [
        {
          "internalType": "uint256",
          "name": "_tokenId",
          "type": "uint256"
        }
      ],
      "name": "getApproved",
      "outputs": [
        {
          "internalType": "address",
          "name": "",
          "type": "address"
        }
      ],
      "stateMutability": "view",
      "type": "function",
      "constant": true
    },
    {
      "inputs": [
        {
          "internalType": "address",
          "name": "_operator",
          "type": "address"
        },
        {
          "internalType": "bool",
          "name": "_approved",
          "type": "bool"
        }
      ],
      "name": "setApprovalForAll",
      "outputs": [],
      "stateMutability": "nonpayable",
      "type": "function"
    },
    {
      "inputs": [
        {
          "internalType": "address",
          "name": "_approved",
          "type": "address"
        },
        {
          "internalType": "uint256",
          "name": "_tokenId",
          "type": "uint256"
        }
      ],
      "name": "approve",
      "outputs": [],
      "stateMutability": "payable",
      "type": "function",
      "payable": true
    },
    {
      "inputs": [
        {
          "internalType": "address",
          "name": "_from",
          "type": "address"
        },
        {
          "internalType": "address",
          "name": "_to",
          "type": "address"
        },
        {
          "internalType": "uint256",
          "name": "_tokenId",
          "type": "uint256"
        }
      ],
      "name": "transferFrom",
      "outputs": [],
      "stateMutability": "payable",
      "type": "function",
      "payable": true
    },
    {
      "inputs": [
        {
          "internalType": "address",
          "name": "_from",
          "type": "address"
        },
        {
          "internalType": "address",
          "name": "_to",
          "type": "address"
        },
        {
          "internalType": "uint256",
          "name": "_tokenId",
          "type": "uint256"
        }
      ],
      "name": "safeTransferFrom",
      "outputs": [],
      "stateMutability": "payable",
      "type": "function",
      "payable": true
    },
    {
      "inputs": [
        {
          "internalType": "address",
          "name": "_from",
          "type": "address"
        },
        {
          "internalType": "address",
          "name": "_to",
          "type": "address"
        },
        {
          "internalType": "uint256",
          "name": "_tokenId",
          "type": "uint256"
        },
        {
          "internalType": "bytes",
          "name": "data",
          "type": "bytes"
        }
      ],
      "name": "safeTransferFrom",
      "outputs": [],
      "stateMutability": "payable",
      "type": "function",
      "payable": true
    },
    {
      "inputs": [
        {
          "internalType": "uint256",
          "name": "_propertyId",
          "type": "uint256"
        }
      ],
      "name": "ownerOf",
      "outputs": [
        {
          "internalType": "address",
          "name": "",
          "type": "address"
        }
      ],
      "stateMutability": "view",
      "type": "function",
      "constant": true
    },
    {
      "inputs": [
        {
          "internalType": "address",
          "name": "propertyOwner",
          "type": "address"
        }
      ],
      "name": "balanceOf",
      "outputs": [
        {
          "internalType": "uint256",
          "name": "",
          "type": "uint256"
        }
      ],
      "stateMutability": "view",
      "type": "function",
      "constant": true
    }
  ],
  "bytecode": "0x608060405234801561001057600080fd5b5060405161075e38038061075e8339818101604052606081101561003357600080fd5b8101908080519060200190929190805190602001909291908051906020019092919050505033600160006101000a81548173ffffffffffffffffffffffffffffffffffffffff021916908373ffffffffffffffffffffffffffffffffffffffff160217905550826000806101000a81548173ffffffffffffffffffffffffffffffffffffffff021916908373ffffffffffffffffffffffffffffffffffffffff16021790555081600381905550806002819055506000809054906101000a900473ffffffffffffffffffffffffffffffffffffffff1660066000600254815260200190815260200160002060006101000a81548173ffffffffffffffffffffffffffffffffffffffff021916908373ffffffffffffffffffffffffffffffffffffffff160217905550600354600460008573ffffffffffffffffffffffffffffffffffffffff1673ffffffffffffffffffffffffffffffffffffffff168152602001908152602001600020819055505050506105aa806101b46000396000f3fe6080604052600436106100865760003560e01c80636352211e116100595780636352211e1461023057806370a08231146102ab578063a22cb46514610310578063b88d4fde1461036d578063e985e9c51461043057610086565b8063081812fc1461008b578063095ea7b31461010657806323b872dd1461015457806342842e0e146101c2575b600080fd5b34801561009757600080fd5b506100c4600480360360208110156100ae57600080fd5b81019080803590602001909291905050506104b9565b604051808273ffffffffffffffffffffffffffffffffffffffff1673ffffffffffffffffffffffffffffffffffffffff16815260200191505060405180910390f35b6101526004803603604081101561011c57600080fd5b81019080803573ffffffffffffffffffffffffffffffffffffffff169060200190929190803590602001909291905050506104c0565b005b6101c06004803603606081101561016a57600080fd5b81019080803573ffffffffffffffffffffffffffffffffffffffff169060200190929190803573ffffffffffffffffffffffffffffffffffffffff169060200190929190803590602001909291905050506104c4565b005b61022e600480360360608110156101d857600080fd5b81019080803573ffffffffffffffffffffffffffffffffffffffff169060200190929190803573ffffffffffffffffffffffffffffffffffffffff169060200190929190803590602001909291905050506104c9565b005b34801561023c57600080fd5b506102696004803603602081101561025357600080fd5b81019080803590602001909291905050506104ce565b604051808273ffffffffffffffffffffffffffffffffffffffff1673ffffffffffffffffffffffffffffffffffffffff16815260200191505060405180910390f35b3480156102b757600080fd5b506102fa600480360360208110156102ce57600080fd5b81019080803573ffffffffffffffffffffffffffffffffffffffff169060200190929190505050610510565b6040518082815260200191505060405180910390f35b34801561031c57600080fd5b5061036b6004803603604081101561033357600080fd5b81019080803573ffffffffffffffffffffffffffffffffffffffff16906020019092919080351515906020019092919050505061055e565b005b61042e6004803603608081101561038357600080fd5b81019080803573ffffffffffffffffffffffffffffffffffffffff169060200190929190803573ffffffffffffffffffffffffffffffffffffffff16906020019092919080359060200190929190803590602001906401000000008111156103ea57600080fd5b8201836020820111156103fc57600080fd5b8035906020019184600183028401116401000000008311171561041e57600080fd5b9091929391929390505050610562565b005b34801561043c57600080fd5b5061049f6004803603604081101561045357600080fd5b81019080803573ffffffffffffffffffffffffffffffffffffffff169060200190929190803573ffffffffffffffffffffffffffffffffffffffff169060200190929190505050610569565b604051808215151515815260200191505060405180910390f35b6000919050565b5050565b505050565b505050565b6000806006600084815260200190815260200160002060009054906101000a900473ffffffffffffffffffffffffffffffffffffffff16905080915050919050565b600080600460008473ffffffffffffffffffffffffffffffffffffffff1673ffffffffffffffffffffffffffffffffffffffff16815260200190815260200160002054905080915050919050565b5050565b5050505050565b60008090509291505056fea26469706673582212206dce982a1bea8317e48481f6583d2d637f94ad0485edfe31b8050c43187d5b7764736f6c63430006000033",
  "source": "pragma solidity ^0.6.0 <0.6.11;\r\n\r\nimport \"./interface/IERC721.sol\";\r\n\r\n/*\r\n* This smart contract represents a class of property assets both for private and commercial properties.\r\n* This is the reason for using ERC721 standard\r\n*/\r\ncontract Properties is IERC721 {\r\n\r\n    address owner;\r\n    address contractMsgSender;\r\n    //tokenId is considered the propertyId\r\n    uint256 tokenId;\r\n    uint256 initialPropertyValue;\r\n\r\n    //represents the value of the property\r\n    mapping(address => uint256) propertyValue;\r\n\tmapping(address => mapping (address => uint256)) allowed;\r\n    //uint256 represents the ID of the token for the property.  This can be in a form of property title identification\r\n    mapping(uint256 => address) propertyOwner;\r\n\r\n    event propertyValueSet(address property_Owner, uint256 value);\r\n\r\n    constructor ( address propertyOwnerAddress, uint256 _initialPropertyValue, uint256 _tokenId ) public {\r\n        /*\r\n        * anyone can deploy this contract either the property owner itself or\r\n        * another vendor on behalf the property owner.  So the owner of the property MUST BE identified as\r\n        * the owner if the msg.sender happens to be a vendor deploying on behalf of the property owner\r\n        */\r\n        contractMsgSender = msg.sender;\r\n\t\towner = propertyOwnerAddress;\r\n        initialPropertyValue = _initialPropertyValue;\r\n        tokenId = _tokenId;\r\n        propertyOwner[tokenId] = owner;\r\n        propertyValue[propertyOwnerAddress] = initialPropertyValue;\r\n\t}\r\n\r\n    function isApprovedForAll(address _owner, address _operator) external override view returns (bool) {\r\n        return(false);\r\n    }\r\n\r\n    function getApproved(uint256 _tokenId) external override view returns (address) {\r\n\r\n    }\r\n\r\n    function setApprovalForAll(address _operator, bool _approved) external override {\r\n\r\n    }\r\n \r\n    function approve(address _approved, uint256 _tokenId) external override payable {\r\n\r\n    }\r\n\r\n    function transferFrom(address _from, address _to, uint256 _tokenId) external override payable {\r\n\r\n    }\r\n\r\n    function safeTransferFrom(address _from, address _to, uint256 _tokenId, bytes calldata data) external override payable {\r\n\r\n    }\r\n\r\n    function safeTransferFrom(address _from, address _to, uint256 _tokenId) external override payable {\r\n\r\n    }\r\n\r\n    function ownerOf(uint256 _propertyId) external override view returns (address) {\r\n        address addy = propertyOwner[_propertyId];\r\n        return  (addy);\r\n    }\r\n\r\n    function balanceOf(address propertyOwner) public override view returns (uint256) {\r\n        uint256 propertyValue = propertyValue[propertyOwner];\r\n\t\treturn propertyValue; \r\n\t}\r\n\r\n}",
  "sourcePath": "C:/Users/jay.sanchez/j4/crypto-pips/contracts/Properties.sol",
  "compiler": {
    "name": "solc",
    "version": "0.6.0+commit.26b70077.Emscripten.clang"
  },
  "schemaVersion": "3.3.2",
  "updatedAt": "2020-12-18T00:34:53.320Z",
  "networkType": "ethereum",
  "devdoc": {
    "methods": {}
  },
  "userdoc": {
    "methods": {}
  }
}